:020000040000FA
:10000000B8022020D5000000D9000000DB0000006D
:1000100000000000000000000000000000000000E0
:10002000000000000000000000000000DD000000F3
:100030000000000000000000DF000000E100000000
:10004000E3000000E3000000E3000000E300000024
:10005000E3000000E3000000E3000000E300000014
:1000600000000000E3000000E300000000000000CA
:1000700000000000E3000000E3000000650600004F
:10008000E3000000E3000000E3000000E3000000E4
:10009000E3000000E300000000000000000000009A
:1000A000E3000000E300000000000000000000008A
:1000B000E300000000000000E3000000E300000097
:1000C0000348854600F010F8004800470D0700007F
:1000D000B802202003480047FEE7FEE7FEE7FEE700
:1000E000FEE7FEE7C10000001CB509480090094882
:1000F000019005460126009C05E0E36807CC3343E8
:100100000C3C98471034AC42F7D3FFF7DDFF0000FA
:10011000C8070000D8070000811E091F00BFFCD2DD
:1001200070470000F0B583B00B794A79002A2AD0D5
:100130001A4A1B4C1B4F21252D01202B00D0703556
:10014000861802190092C219002B00D18825176861
:10015000474C27407F191760576827407D19556025
:100160003568464F3D40356075683D4075600025F7
:10017000009C256065608F24E44315692540156166
:1001800055692540556101AA13718B79537109682E
:100190000191114600F008F803B0F0BD38180000D6
:1001A0005818000078180000F0B584B02E4A821864
:1001B00002923A4BC6183F4BC21800922B4BC41800
:1001C0000A7901910D682A4F202A03920AD0254B03
:1001D000C018002A17D16B1E029A536023683B4057
:1001E000882517E0681E029A506020683840214B2D
:1001F000184320606068384018436060012045075C
:100200001D4F104608E06B08029A536023683B407C
:100210000525ED012B432360009903683B402B43E8
:1002200003603068154B184030607068184070608B
:100230000020086048608F20C04323690340236189
:100240006369034063610198407903990843BD21C4
:10025000014010680A4B0340C818801C106004B0AD
:10026000F0BDC046741800000418000070180000AB
:1002700024F93FF001040000FFFFFFCF8888FDFF55
:100280004000FFCF10B507239B041940920080184F
:10029000024A84589C436118815010BD30180000F8
:1002A00010B5029CA400001911431943014A815062
:1002B00010BDC0465018000092008018014A8150BD
:1002C0007047C0461018000010B5012212038318B1
:1002D0000C789C604B7883508978014A815010BD1E
:1002E0000C110000B0B51122120283580124A3435F
:1002F00083508B780C881C438B882343094C1C400B
:100300008358094D1D402B1983508B79CC791C43A0
:10031000097A21437E231940801842689A43511874
:100320004160B0BD18670000E798FDFF10B50122DD
:10033000120383180C789C604978815010BD00002E
:1003400010B5184A872010600120030716490B607A
:10035000164B85245C6084030C6086241C61440475
:100360000C6082249464800404468234D464104C6B
:100370005C618124D4671C609C60DC600A46303A72
:100380001B231B0313600B600A490A6810231343E5
:100390000B6009490A6A02430A620A6802430A605A
:1003A00010BDC0460C804240D0120A408C804240B2
:1003B00081000500A0130A4028100A40B0B582B0A1
:1003C000A64C10492046FFF77FFF0F492046FFF754
:1003D000EBFE00250095204629462A462B46FFF7CE
:1003E0005FFF204629462A46FFF74CFF7D2041014A
:1003F00020462A46FFF760FF044801218160016022
:1004000002B0B0BD960700009C07000000118740B5
:10041000B0B582B0924C10492046FFF755FF0F4906
:100420002046FFF7C1FE00250095204629462A46B2
:100430002B46FFF735FF204629462A46FFF722FFC5
:100440007D20410120462A46FFF736FF044801215E
:100450008160016002B0B0BDA4070000A8070000E1
:1004600000B18640B0B582B0C04C10492046FFF7BD
:100470002BFF0F492046FFF755FE0025009520462B
:1004800029462A462B46FFF70BFF204629462A46D7
:10049000FFF7F8FE204629462A46FFF70DFF0548DC
:1004A00001218160016002B0B0BDC046B00700000C
:1004B000B4070000003186400C4800210160032091
:1004C000C1430B480246083A13680B4013600168A9
:1004D000012291430160110203688B430360110301
:1004E000001F02680A4302607047C04608030B40C1
:1004F00008010B40054804210160054941600021C5
:100500008160016805220A430260704710E000E044
:10051000FF7C000010B5144C14492046FFF706FF7D
:1005200013492046FFF7DEFE0321CA031148036882
:10053000934303600269104B13401A33036142690D
:100540000A433C218A4342614168012211404368C9
:100550009343591841609102084B1C680C431C607E
:1005600001681143016010BD00801040BC0700000D
:10057000BE070000009110400000FFFF28901040CF
:1005800080B500F01BF8FFF7DBFEFFF795FFFFF7E4
:1005900069FFFFF713FFFFF73BFFFFF7BBFFFFF715
:1005A000A9FF7420034900220A54B82002490A54C2
:1005B00080BDC046000020207800202070B50C4887
:1005C0000C4941600C4A51600C4B59600C4C616005
:1005D0000C4D69600C4E71600C490160116019602E
:1005E0002160296031601020FFF796FD70BDC04684
:1005F00000080A40030000B100280A400028864095
:100600000008874000A886400088104001000026AE
:1006100070B50C4601460126320370030E4D0129C8
:1006200002DB2A60286102E02A61286049420B4807
:100630000022FFF741FEF1033004012C02DB2960A8
:10064000286102E0296128606442054800222146B1
:10065000FFF732FE70BDC04690120A40000087408E
:1006600000A0864010B512480068C0B20B281ED109
:100670001048C169104A13887E2B13D813885C1C5C
:1006800014800E4AD1540268D20708D00268D207FB
:1006900005D00268D20702D00268D207F3D1C9B2EE
:1006A000816101E00020108005480121017010BD2A
:1006B0002090104008911040B601202034012020E5
:1006C000B4012020B0B57D21090241430E480368E2
:1006D000262206E0E41A051F2D686419A2188A4232
:1006E00010D21C460368A34208D10368A34205D177
:1006F0000368A34202D10368A342F3D09C42E9D924
:10070000E41AEBE7B0BDC04618E000E0FFF738FFA1
:1007100000242046FFF7D6FF204600F00FF87D208A
:10072000040120462146FFF773FF2046FFF7CAFF6A
:1007300000200146FFF76CFFFAE7000080B508498A
:10074000081A81B20748814200D801460648814212
:1007500000D3014605480022FFF7AEFD80BDC0462C
:100760001F0600002B040000130800000020864034
:1007700002E008C8121F08C1002AFAD17047000021
:100780007047000000000000002001E001C1121FBE
:10079000002AFBD17047080100000000E8030000B8
:1007A0002001000008010000E80300002001000013
:1007B00008001F00204E000020010100040000007E
:1007C0001800000000300000D807000000002020C2
:0807D000B802000088070000D8
:04000005000000C136
:00000001FF
